:020000020000FC
:100000000C94020004E00EBF0FE50DBF01E010E00C
:100010000E942F0000E50E94360008E40E9436008E
:1000200009E50E94360003E50E94360003E30E94C2
:10003000360004E30E94360000E30E9436000AE026
:100040000E9436000DE00E9436000E9460000E946F
:100050003A0000E00E9463000E943E00F8CF10BD0D
:1000600009B908E10AB90EE800BD08955D9BFECF0D
:100070000CB908955F9BFECF0CB10895202F00E3CB
:100080000E94360008E70E943600022F02950E9467
:1000900057000E943600022F0E9457000E9436002F
:1000A0000AE00E9436000DE00E94360008950F70AD
:1000B0000A3018F410E3010F089517E3010F0895B3
:1000C00009E806B908950770006607B9369A3699A7
:0600D000FECF05B108950A
:00000001FF
