:020000020000FC
:100000000C94020004E00EBF0FE50DBF09EA10E0FA
:1000100020E060E01FEF17BB10E014BB10E00E946F
:100020001200FDCF502F0695069506950695029570
:10003000550F550F550F550F52950E942D00052B4A
:1000400008BB08950695069506950695502F0E94C3
:100050002D005295052B08BB08955A3031F05930C8
:1000600031F0553031F0563031F059E006C055E0EE
:1000700004C056E002C05AE000C031E041E000C0D8
:10008000242F422F4A95F1F73A95D9F70895116038
:1000900002C0126000C0113029F212301330FFCFBD
:00000001FF
