:020000020000FC
:100000000C94020004E00EBF0FE50DBF10E001E00C
:1000100010BD09B908E10AB90EE800BD0E9411003F
:10002000FDCF01C0089510E014BB0E9420000E9483
:100030001B000E941F0003B30E942500FCCF0895FF
:1000400060E07AE01FEF17BB08956130E1F07A308D
:1000500031F0793031F0753031F0763031F079E0CF
:1000600006C075E004C076E002C07AE000C081E01E
:1000700091E000C0292F922F9A95F1F78A95D9F730
:0E00800078BB6395E2CF089529E806B908958C
:00000001FF
